:020000040800F2
:1000000050080020C9290008950900089709000830
:100010009B0900089F090008A309000800000000D0
:10002000000000000000000000000000A709000818
:10003000A909000800000000AB090008AD0900088C
:10004000E3290008E3290008E3290008E329000860
:10005000E3290008E3290008E3290008E329000850
:10006000E3290008E3290008E3290008E329000840
:10007000E3290008E3290008E3290008E329000830
:10008000E3290008E3290008E3290008E329000820
:10009000E3290008E3290008E3290008E329000810
:1000A000E3290008E3290008E3290008E329000800
:1000B000E3290008E3290008E3290008E3290008F0
:1000C000E3290008E3290008E3290008E3290008E0
:1000D000E32900083F290008E3290008E329000874
:1000E000E3290008E3290008E3290008E3290008C0
:1000F000E3290008E3290008E3290008E3290008B0
:10010000E3290008E3290008E3290008E32900089F
:10011000E3290008E3290008E3290008E32900088F
:10012000E3290008E3290008E3290008E32900087F
:1001300000F002F800F04DF80AA090E8000C8244AC
:100140008344AAF10107DA4501D100F042F8AFF289
:10015000090EBAE80F0013F0010F18BFFB1A43F0A5
:1001600001031847907F0000B07F0000103A24BFC1
:1001700078C878C1FAD8520724BF30C830C144BF0C
:1001800004680C607047000000230024002500264E
:10019000103A28BF78C1FBD8520728BF30C148BFEA
:1001A0000B607047662906F05282642903F05A8575
:1001B000782903F09385002070471FB504F0E0F81C
:1001C00004000020002105F00BFAE0601FBD10B50F
:1001D00010BD04F0F5F91146FFF7EFFF00F067FBE3
:1001E00004F013FA03B4FFF7F2FF03BC02F04CFB78
:1001F0002DE9F84F05460E4617464FF0000800243B
:100200000CE0404606F068F8824656F8241005F0E7
:10021000DFFE814606F028F88046641CAC42F0DB25
:10022000B8FBF5F0FE490860FE4908604FF0000891
:1002300000240CE0404606F04FF8824657F82410A0
:1002400005F0C6FE814606F00FF88046641CAC42FD
:10025000F0DBB8FBF5F0F4490860F44908600024CD
:1002600020E0F048006806F01FF8814656F8241098
:1002700006F046F805D856F8240005F0D9FFE949FC
:100280000860E748006806F00FF8814656F8241029
:1002900006F036F905D256F8240005F0C9FFE0490A
:1002A0000860641CAC42DCDB002420E0DF4800680E
:1002B00005F0FAFF814657F8241006F021F805D81A
:1002C00057F8240005F0B4FFD8490860D648006804
:1002D00005F0EAFF814657F8241006F011F905D21F
:1002E00057F8240005F0A4FFCF490860641CAC4215
:1002F000DCDBDFF834C3BCF800C01FFA8CF3DFF896
:1003000024C3BCF800C01FFA8CF2DFF81CC3BCF891
:1003100000C01FFA8CF1DFF808C3BCF800C01FFA58
:100320008CF002F004F8DFF804C3BCF800C01FFA38
:100330008CF3DFF8ECC2BCF800C01FFA8CF2DFF8D7
:10034000E8C2BCF800C01FFA8CF1DFF8D4C2BCF8D8
:1003500000C01FFA8CF001F0EAFFDFF8D0C2BCF851
:1003600000C01FFA8CF3DFF8BCC2BCF800C01FFA53
:100370008CF2DFF8B4C2BCF800C01FFA8CF1DFF8D1
:10038000A4C2BCF800C01FFA8CF001F0D0FFDFF867
:100390009CC2BCF800C01FFA8CF3DFF888C2BCF81E
:1003A00000C01FFA8CF2DFF884C2BCF800C01FFA4C
:1003B0008CF1DFF86CC2BCF800C01FFA8CF001F0C1
:1003C000B6FF9A480068009096480368964802680D
:1003D0009348016896A003F011FCBDE8F88F2DE961
:1003E000F04F87B080460F4615469946DDF840A08D
:1003F0000020059006908B48006805F055FF834665
:10040000494605F07DFF1AD38848006805F04CFF87
:100410008346514605F074FF11D38148006805F00A
:1004200043FF8346494606F06BF808D37E480068D0
:1004300005F03AFF8346514606F062F804D24FF4C5
:100440007A7007B0BDE8F08F0024A8F1010642E001
:1004500055F82400514606F053F802D24FF0010B34
:1004600001E04FF0000B55F82600514606F048F821
:1004700001D2012000E0002083452AD055F8241045
:1004800055F8260006F06EF8039055F824105046F3
:1004900006F068F8019057F8241057F8260006F087
:1004A00061F80090019905F05FFF0290039905F053
:1004B000FDFD049057F8241005F08AFD8346494657
:1004C00006F01EF805D2059808B9012000E00020CA
:1004D00005902646641C4445BADB059880B2B0E717
:1004E0002DE9F04F8BB08346894692461F2058492C
:1004F0000880002444E0611C5AF8210005F03CFD0E
:1005000005460E46611C59F8210005F035FD0746E9
:1005100088465AF8240005F02FFDCDE9080159F866
:10052000240005F029FDCDE90278CDE90456CDE996
:100530000601DDE90801CDE9000146A0DDE9062359
:1005400003F05CFB611C5AF8210005F08DFE85B2BA
:10055000611C59F8210005F087FE86B25AF8240084
:1005600005F082FE87B259F8240005F07DFE1FFADF
:1005700080F82B4632463946404601F0D8FE641CCE
:10058000ABF10100A042B6DCDAF8000005F06CFE29
:1005900085B2D9F8000005F067FE86B2ABF1010123
:1005A0005AF8210005F060FE87B2ABF1010159F85D
:1005B000210005F059FE1FFA80F82B4632463946D5
:1005C000404601F0B4FE0BB0BDE8F08F2DE9F04FCE
:1005D00093B005460E4691469A46002424E12046F3
:1005E00004EBD0714910A4EB410100297ED04846AC
:1005F00005F0C2FCCDE90E011C9805F0BDFCCDE96B
:100600000A0104EBC401880005F04EFE03901D9919
:1006100005F0DEFC834605F0AFFC164A164B2DE0D4
:10062000D4000020CC000020D8000020D000002002
:100630006D696E3A2535642C253564202D2D3E3E9E
:10064000206D61783A2535642C2535640D0A00004B
:10065000F200002025352E31662C25352E316620FE
:100660002D2D3E3E2025352E31662C25352E31662A
:100670000D0A00004AD8124DFB210940CDE90401C2
:1006800005F086FA07460022B24B05F0A1F8CDE945
:10069000060104F007FFCDE90801DDE90A2305F0B2
:1006A00077FACDE90C01DDE90E2304F0E1FFCDE995
:1006B000100104F0ABFF45F82400504605F05CFC47
:1006C000CDE90E011C9805F057FCCDE90A0104EBB9
:1006D000C401880005F0E8FD03901D9905F078FC41
:1006E000834605F049FC9C4A9C4B00E01FE0CDE9A5
:1006F000040105F04DFA0022964BCDE9060105F004
:1007000067F8CDE9080104F01BFF0746DDE90A237D
:1007100005F03EFACDE90C01DDE90E2304F0A8FF57
:10072000CDE9100104F072FF46F824007BE0484652
:1007300005F022FCCDE90E011C9805F01DFCCDE969
:10074000080104EBC401880005F0AEFD01901D997D
:1007500005F03EFC834605F00FFC07467E4A7F4BC2
:1007600005F016FA00227B4BCDE9020105F030F8C6
:10077000CDE9040104F096FECDE90601DDE9082388
:1007800005F006FA4FF03332754BCDE90A0105F05A
:10079000FFF9CDE90C01DDE90E2304F069FFCDE995
:1007A000100104F033FF45F82400504605F0E4FB47
:1007B000CDE90E011C9805F0DFFBCDE9080104EB43
:1007C000C401880005F070FD01901D9905F000FC42
:1007D000834605F0D1FB604A604BCDE9020105F08C
:1007E000D7F9074600225B4B04F0F2FFCDE9040184
:1007F00004F0A6FECDE90601DDE9082305F0C8F9FD
:100800004FF03332564BCDE90A0105F0C1F9CDE97D
:100810000C01DDE90E2304F02BFFCDE9100104F0FB
:10082000F5FE46F82400641C0A2CFFF6D8AE13B07F
:10083000BDE8F08F2DE9F84307464A48056830E0E7
:100840004948066828E0284605F02EFD80463046D7
:1008500005F02AFD81464B46444A45494548CDF8B6
:1008600000800078FFF7BBFD0446B4F57A7F12D014
:10087000204604EBD0714910A4EB410159B104EBBF
:10088000D0714910A4EB4101012904D1A9B2B0B241
:100890003A4600F049FB761C374800688642D2DBB6
:1008A0006D1C364800688542CADBBDE8F8831CB57C
:1008B000002401F07FFF4FF4A06002F0A5F84FF490
:1008C000E13001F0F0FF00F063F900F087F900F08B
:1008D00038FC264A264927480078FFF789FC234A36
:1008E000234924480078FFF7FBFD1F20FFF7A2FFF4
:1008F0004FF47A7001F09BFF4FF6FF7000F0EFFBB2
:100900001F482049204B214ACDE9001017491848BB
:10091000FFF75CFE154A16490A20FFF769FC134AE7
:1009200013490A20FFF7DCFD1F20FFF783FF0FE0CC
:10093000601CC4B20A2001F07AFF1E2C08D10024EA
:100940001348006808B9012000E000201049086041
:10095000EEE70000008066404AD8124DFB210940B6
:100960003333D33FD8000020D4000020680000209B
:100970000400002000000020CC000020D000002057
:10098000000010C2000048430000C843000070434C
:1009900094812142704700BFFEE700BFFEE700BF21
:1009A000FEE700BFFEE770477047704770470000E2
:1009B0000CB50020019000906C48006840F4803035
:1009C0006A49086000BF6948006800F40030009080
:1009D0000198401C0190009818B90198B0F5A06FDB
:1009E000F1D16248006800F4003010B1012000909D
:1009F00001E0002000900098012843D15C48006885
:100A000040F010005A4908600846006820F00300D2
:100A100008600846006840F00200086053484068DB
:100A2000524948600846406848600846406840F4BB
:100A3000806048600846406820F47C1048600846A2
:100A4000406840F4E81048600846006840F0807054
:100A5000086000BF4548006800F000700028F9D029
:100A60004248406820F0030040494860084640681A
:100A700040F00200486000BF3C48406800F00C00B5
:100A80000828F9D10CBD10B5FFF792FF10BD10B5C5
:100A90003648006840F00100344908600846406864
:100AA00034490840314948600846006832490840E6
:100AB0002E4908600846006820F480200860084637
:100AC000406820F4FE0048604FF41F008860FFF784
:100AD000DAFF4FF000602949086010BD10B5002111
:100AE00000200022214B5B6803F00C0121B1042996
:100AF00006D0082928D107E0214B224C236027E0AB
:100B00001F4B204C236023E0184B5B6803F47010EC
:100B1000164B5B6803F48032022303EB904022B94A
:100B2000194B4343174C23600DE0104B5B6803F4F3
:100B3000003323B1144B4343124C236003E0104BAA
:100B40004343104C236003E00D4B0E4C236000BF69
:100B500000BF064B5B68C3F303130C4CE15C094B0D
:100B60001B68CB40074C236010BD00000010024002
:100B7000002002400000FFF8FFFFF6FE08ED00E055
:100B800000127A00DC00002000093D00E000002097
:100B900008B50121482002F0C7FD2020ADF8000073
:100BA00010208DF8030003208DF8020069460948E3
:100BB00002F0FEFA2021074802F0A7FB2020ADF842
:100BC00000006946044802F0F3FA2021024802F0CE
:100BD0009CFB08BD000C01400018014008B5012134
:100BE000442002F0A1FD1820ADF8000048208DF847
:100BF000030069462C4802F0DBFA0120ADF8000042
:100C000028208DF803006946284802F0D1FA08BD73
:100C100010B5044614B10120254908702448007815
:100C200058B31021204802F056FB50B108211E484D
:100C300002F051FB28B101211C4802F04CFB0128B5
:100C40001BD10A2001F0F3FD002019490870102182
:100C5000154802F040FB08B9012010BD08211248D8
:100C600002F039FB08B90220F7E701210F4802F032
:100C700032FB012815D10320EFE710210A4802F0CA
:100C80002AFB01280DD10821074802F024FB012886
:100C900007D10121054802F01EFB10B901200449CB
:100CA00008700020D9E7000000180140000801404A
:100CB000F0000020FE4908807047FD49891C08802B
:100CC000704708B5FA48801C00880090BDF8000005
:100CD00008BDF74A1080921C1180704710B5044679
:100CE0002046FFF7E7FF052001F07DFDFFF7E9FF54
:100CF00010BDF0480089EE4908807047EC49891C16
:100D00000880704730B5014601F01F04C1F3451358
:100D1000CA0AE50205EB43151544A8B230BD00BF71
:100D2000011EA0F10102D0B2FAD1704700B502460F
:100D30000B46E0494889FFF7BDFF1012FFF7BDFFE2
:100D4000DC494989491C88B2FFF7B4FFD0B2FFF7EC
:100D5000B4FFD8498889FFF7ADFF1812FFF7ADFF40
:100D6000D4498989491C88B2FFF7A4FFD8B2FFF79C
:100D7000A4FF00BD2DE9F04104460D4600260027E2
:100D8000B046CC480088A04203DDCA484088A8424B
:100D900002DC0020BDE8F08129462046FFF7C6FFAF
:100DA0004FF43850FFF786FFFFF78BFF064602200F
:100DB000FFF7B5FFFFF785FF06460220FFF7AFFFFD
:100DC000FFF77FFF8046F7B24FF6FF7000EA072774
:100DD000F012C002B91240EA411040EAE820D9E717
:100DE00000B54FF42450FFF765FF00BD00B54FF488
:100DF0002050FFF75FFF00BD30B5044600230025FB
:100E0000082C1CD2DFE804F00406090C0F12151898
:100E100000BF14E043F0800311E043F040030EE014
:100E200043F0C0030BE043F0200308E043F060030D
:100E300005E043F0A00302E043F0E00300BF00BF81
:100E40009C48808845F21051884201D14FF4585592
:100E500019462846FFF73DFF9648808845F2105115
:100E6000884251D193494889FFF724FF0020FFF7BA
:100E700024FF90494989491C88B2FFF71BFF0020D5
:100E8000FFF71BFF8B494989891C88B2FFF712FFC6
:100E900088490988491EC1F30F20FFF70EFF8549D5
:100EA0004989C91C88B2FFF705FF82490978491EA4
:100EB000C8B2FFF702FF7F498889FFF7FBFE0020D9
:100EC000FFF7FBFE7B498989491C88B2FFF7F2FED8
:100ED0000020FFF7F2FE77498989891C88B2FFF765
:100EE000E9FE74494988491EC1F30F20FFF7E5FE6A
:100EF00070498989C91C88B2FFF7DCFE6D49897881
:100F0000491EC8B2FFF7D9FE30BD30B504460D46C4
:100F100029462046FFF70AFFFFF7EBFE66480088E8
:100F20006349891C088030BD10B503460C466149F1
:100F30004889FFF7BFFE1812FFF7BFFE5D494989D8
:100F4000491C88B2FFF7B6FED8B2FFF7B6FE594982
:100F50008889FFF7AFFE2012FFF7AFFE5549898958
:100F6000491C88B2FFF7A6FEE0B2FFF7A6FE514883
:100F700000894F490880881C028010BD2DE9F04788
:100F80000446BE20FFF796FE0520FFF796FE20469A
:100F900004F0EAFD07464FF06632484B04F0F8FDD6
:100FA000054604F09DFD1FFA80F94846FFF785FECF
:100FB0000120FFF782FEFF20FFF77FFE0020FFF7F2
:100FC0007CFE0020FFF779FEBDE8F08710B50446EF
:100FD00094B90020374988714FF4305008814FF49C
:100FE000285048814FF42C5088814FF4F0700880CD
:100FF0004FF44870488016E001202E4988714FF464
:10100000A0700880F02048804FF4305008814FF4E1
:10101000285048814FF42C5088814FF44870088044
:101020004FF4F07048800020FFF7E6FE10BDF0B5E9
:1010300004460D46A018401E86B2E818401E87B22E
:101040001C494889FFF736FE2012FFF736FE194982
:101050004989491C88B2FFF72DFEE0B2FFF72DFE4B
:1010600014494989891C88B2FFF724FE3012FFF722
:1010700024FE10494989C91C88B2FFF71BFEF0B253
:10108000FFF71BFE0B498889FFF714FE2812FFF7B4
:1010900014FE08498989491C88B2FFF70BFEE8B2A3
:1010A000FFF70BFE03498989891C88B208E000001C
:1010B000FE07006C18010020F20000206666044064
:1010C000FFF7F8FD3812FFF7F8FDFE498989C91CC2
:1010D00088B2FFF7EFFDF8B2FFF7EFFDF0BD70B596
:1010E00004460026F748058840884543F54880882F
:1010F00046F60401884216D1F2488079012812D1BF
:101100000020F04988712A2048812B208881002105
:101110000846FFF70BFE0120EA4988712B20488121
:101120002A20888103E000210846FFF7FFFDFFF732
:10113000E0FD002602E0E4480480761CAE42FAD3CB
:1011400070BD00B59FB0E049891EE0A002F056FDD9
:10115000DD49E3A002F052FD0121080202F0D7FAB6
:1011600001214FF4B47002F0DFFA0120ADF87800ED
:1011700010208DF87B0003208DF87A001EA9DD4831
:1011800002F016F84CF23370ADF8780018208DF8A4
:101190007B0003208DF87A001EA9D74802F008F8DA
:1011A0004FF68070ADF8780018208DF87B00032092
:1011B0008DF87A001EA9D14801F0FAFF41F2010032
:1011C000ADF8780018208DF87B0003208DF87A00A8
:1011D0001EA9CB4801F0ECFF0120089000200990E7
:1011E0000F200A9000200B900C900D900E90019013
:1011F0000290032003900020049005900690079031
:1012000006200F90002010901190102012900020C6
:10121000139015901490169017904FF480501890DA
:10122000002019904FF480401A9000201B9008A8CD
:101230001C9001A81D900FA801F0A0FC0121062020
:1012400001F004FE322001F0F2FA4FF45A40FFF7A9
:1012500031FDFFF736FD9B4988804FF45B40FFF777
:1012600029FDFFF72EFD97498880084680884FF6B4
:10127000FF7101EA0020934988804FF45C40FFF73A
:1012800019FDFFF71EFD8F49898808438D49888025
:1012900008468088B0F5004F02D145F21050888092
:1012A0008848818897A002F0A9FC8648808845F28A
:1012B000105188427ED155214FF47040FFF709FD4F
:1012C000AA214FF20100FFF704FD52214FF2020064
:1012D000FFF7FFFC08214FF20300FFF7FAFC0121A2
:1012E0004FF20400FFF7F5FC0D214FF43040FFF7FB
:1012F000F0FC0D214BF20100FFF7EBFC0D214BF24E
:101300000200FFF7E6FC34214FF43640FFF7E1FC22
:1013100034214BF20160FFF7DCFC34214BF2026018
:10132000FFF7D7FC0D214FF43140FFF7D2FC0D2120
:101330004BF20110FFF7CDFC0D214BF20210FFF72D
:10134000C8FC34214FF43740FFF7C3FC34214BF283
:101350000170FFF7BEFC34214BF20270FFF7B9FCBD
:1013600000214FF43240FFF7B4FC00214BF2012082
:10137000FFF7AFFC00214BF20220FFF7AAFC24216B
:101380004FF43840FFF7A5FC24214BF60100FFF78E
:10139000A0FC24214BF60200FFF79BFC01214FF437
:1013A0003F40FFF796FC0F214FF43340FFF791FCCD
:1013B0000F2100E0FDE34BF20130FFF78AFC0F2123
:1013C0004BF20230FFF785FC34214FF43940FFF730
:1013D00080FC34214BF60110FFF77BFC34214BF6E7
:1013E0000210FFF776FC08214FF43540FFF771FC3F
:1013F00008214BF20150FFF76CFC08214BF2025020
:10140000FFF767FC03214FF44240FFF762FC242101
:101410004FF43A40FFF75DFC24214BF60120FFF723
:1014200058FC24214BF60220FFF753FC00214FF417
:101430003C40FFF74EFC78214BF60140FFF749FC9A
:1014400000214BF60240FFF744FC00214FF43D40E1
:10145000FFF73FFC78214BF60150FFF73AFC0021E3
:101460004BF60250FFF735FC00214FF43E40FFF7EA
:1014700030FC64214BF60160FFF72BFC00214FF498
:101480005140FFF726FC33214DF20110FFF721FCFC
:1014900000214DF20210FFF71CFC34214DF2031025
:1014A000FFF717FC00214DF20410FFF712FC3A2160
:1014B0004DF20510FFF70DFC00214DF20610FFF76D
:1014C00008FC27E0180100200008006C4C43442071
:1014D0005245473A3078253038580D0A0000000050
:1014E0004C43442052414D3A3078253038580D0A4B
:1014F00000000000000C01400014014000180140F1
:1015000000200140204C43442049443A25780D0AEC
:10151000000000004A214DF20710FFF7DAFB00211E
:101520004DF20810FFF7D5FB5C214DF20910FFF7D3
:10153000D0FB00214DF20A10FFF7CBFB81214DF2C9
:101540000B10FFF7C6FB00214DF20C10FFF7C1FB9B
:10155000A6214DF20D10FFF7BCFB00214DF20E103D
:10156000FFF7B7FBE5214DF20F10FFF7B2FB0121AA
:101570004DF21010FFF7ADFB13214DF21110FFF7E4
:10158000A8FB01214DF21210FFF7A3FB54214DF2ED
:101590001310FFF79EFB01214DF21410FFF799FB8A
:1015A00082214DF21510FFF794FB01214DF2161028
:1015B000FFF78FFBCA214DF21710FFF78AFB0221BC
:1015C0004DF21810FFF785FB00214DF21910FFF7BF
:1015D00080FB02214DF21A10FFF77BFB01214DF237
:1015E0001B10FFF776FB02214DF21C10FFF771FB79
:1015F00034214DF21D10FFF76CFB02214DF21E103D
:10160000FFF767FB67214DF21F10FFF762FB022116
:101610004DF22010FFF75DFB84214DF22110FFF702
:1016200058FB02214DF22210FFF753FBA4214DF28B
:101630002310FFF74EFB02214DF22410FFF749FB68
:10164000B7214DF22510FFF744FB02214DF2261081
:10165000FFF73FFBCF214DF22710FFF73AFB0221A6
:101660004DF22810FFF735FBDE214DF22910FFF770
:1016700030FB02214DF22A10FFF72BFBF2214DF235
:101680002B10FFF726FB02214DF22C10FFF721FB58
:10169000FE214DF22D10FFF71CFB03214DF22E1001
:1016A000FFF717FB10214DF22F10FFF712FB03215C
:1016B0004DF23010FFF70DFB33214DF23110FFF7E3
:1016C00008FB03214DF23210FFF703FB6D214DF2B1
:1016D0003310FFF7FEFA00214FF45240FFF7F9FAFA
:1016E00033214DF20120FFF7F4FA00214DF20220E0
:1016F000FFF7EFFA34214DF20320FFF7EAFA002159
:101700004DF20420FFF7E5FA3A214DF20520FFF7EC
:10171000E0FA00214DF20620FFF7DBFA4A214DF2F4
:101720000720FFF7D6FA00214DF20820FFF7D1FA83
:101730005C214DF20920FFF7CCFA00214DF20A207E
:10174000FFF7C7FA81214DF20B20FFF7C2FA002103
:101750004DF20C20FFF7BDFAA6214DF20D20FFF748
:10176000B8FA00214DF20E20FFF7B3FAE5214DF251
:101770000F20FFF7AEFA01214DF21020FFF7A9FA72
:1017800013214DF21120FFF7A4FA01214DF212208E
:10179000FFF79FFA54214DF21320FFF79AFA012127
:1017A0004DF21420FFF795FA82214DF21520FFF734
:1017B00090FA01214DF21620FFF78BFACA214DF263
:1017C0001720FFF786FA02214DF21820FFF781FA61
:1017D00000214DF21920FFF77CFA02214DF21A2068
:1017E000FFF777FA01214DF21B20FFF772FA022171
:1017F0004DF21C20FFF76DFA34214DF21D20FFF74A
:1018000068FA02214DF21E20FFF763FA67214DF2BC
:101810001F20FFF75EFA02214DF22020FFF759FA50
:1018200084214DF22120FFF754FA02214DF22220AB
:10183000FFF74FFAA4214DF22320FFF74AFA0221C5
:101840004DF22420FFF745FAB7214DF22520FFF78E
:1018500040FA02214DF22620FFF73BFACF214DF24C
:101860002720FFF736FA02214DF22820FFF731FA40
:10187000DE214DF22920FFF72CFA02214DF22A2019
:10188000FFF727FAF2214DF22B20FFF722FA02216F
:101890004DF22C20FFF71DFAFE214DF22D20FFF70F
:1018A00018FA03214DF22E20FFF713FA10214DF202
:1018B0002F20FFF70EFA03214DF23020FFF709FA2F
:1018C00033214DF23120FFF704FA03214DF232208B
:1018D000FFF7FFF96D214DF23320FFF7FAF90021F0
:1018E0004FF45340FFF7F5F933214DF20130FFF784
:1018F000F0F900214DF20230FFF7EBF934214DF2FF
:101900000330FFF7E6F900214DF20430FFF7E1F96B
:101910003A214DF20530FFF7DCF900214DF2063097
:10192000FFF7D7F94A214DF20730FFF7D2F900212E
:101930004DF20830FFF7CDF95C214DF20930FFF789
:10194000C8F900214DF20A30FFF7C3F981214DF2A9
:101950000B30FFF7BEF900214DF20C30FFF7B9F95B
:10196000A6214DF20D30FFF7B4F900214DF20E30F3
:10197000FFF7AFF9E5214DF20F30FFF7AAF901218A
:101980004DF21030FFF7A5F913214DF21130FFF79A
:10199000A0F901214DF21230FFF79BF954214DF2CD
:1019A0001330FFF796F901214DF21430FFF791F94A
:1019B00082214DF21530FFF78CF901214DF21630DE
:1019C000FFF787F9CA214DF21730FFF782F902219C
:1019D0004DF21830FFF77DF900214DF21930FFF775
:1019E00078F902214DF21A30FFF773F901214DF217
:1019F0001B30FFF76EF902214DF21C30FFF769F939
:101A000034214DF21D30FFF764F902214DF21E30F2
:101A1000FFF75FF967214DF21F30FFF75AF90221F6
:101A20004DF22030FFF755F984214DF22130FFF7B8
:101A300050F902214DF22230FFF74BF9A4214DF26B
:101A40002330FFF746F902214DF22430FFF741F928
:101A5000B7214DF22530FFF73CF902214DF2263037
:101A6000FFF737F9CF214DF22730FFF732F9022186
:101A70004DF22830FFF72DF9DE214DF22930FFF726
:101A800028F902214DF22A30FFF723F9F2214DF215
:101A90002B30FFF71EF902214DF22C30FFF719F918
:101AA000FE214DF22D30FFF714F903214DF22E30B7
:101AB000FFF70FF910214DF22F30FFF70AF903213C
:101AC0004DF23030FFF705F933214DF23130FFF799
:101AD00000F903214DF23230FFF7FBF86D214DF292
:101AE0003330FFF7F6F800214FF45440FFF7F1F8D8
:101AF00033214DF20140FFF7ECF800214DF2024096
:101B0000FFF7E7F834214DF20340FFF7E2F8002138
:101B10004DF20440FFF7DDF83A214DF20540FFF7A2
:101B2000D8F800214DF20640FFF7D3F84A214DF2D4
:101B30000740FFF7CEF800214DF20840FFF7C9F843
:101B40005C214DF20940FFF7C4F800214DF20A4034
:101B5000FFF7BFF881214DF20B40FFF7BAF80021E3
:101B60004DF20C40FFF7B5F8A6214DF20D40FFF7FE
:101B7000B0F800214DF20E40FFF7ABF8E5214DF231
:101B80000F40FFF7A6F801214DF21040FFF7A1F832
:101B900013214DF21140FFF79CF801214DF2124044
:101BA000FFF797F854214DF21340FFF792F8012107
:101BB00000E029E34DF21440FFF78BF882214DF24B
:101BC0001540FFF786F801214DF21640FFF781F826
:101BD000CA214DF21740FFF77CF802214DF2184060
:101BE000FFF777F800214DF21940FFF772F8022154
:101BF0004DF21A40FFF76DF801214DF21B40FFF73F
:101C000068F802214DF21C40FFF763F834214DF2D1
:101C10001D40FFF75EF802214DF21E40FFF759F814
:101C200067214DF21F40FFF754F802214DF220408A
:101C3000FFF74FF884214DF22140FFF74AF80221C7
:101C40004DF22240FFF745F8A4214DF22340FFF763
:101C500040F802214DF22440FFF73BF8B7214DF246
:101C60002540FFF736F802214DF22640FFF731F804
:101C7000CF214DF22740FFF72CF802214DF22840EA
:101C8000FFF727F8DE214DF22940FFF722F8022165
:101C90004DF22A40FFF71DF8F2214DF22B40FFF7DD
:101CA00018F802214DF22C40FFF713F8FE214DF2F7
:101CB0002D40FFF70EF803214DF22E40FFF709F8F3
:101CC00010214DF22F40FFF704F803214DF2304070
:101CD000FEF7FFFF33214DF23140FEF7FAFF0321FB
:101CE0004DF23240FEF7F5FF6D214DF23340FEF725
:101CF000F0FF00214FF45540FEF7EBFF33214DF28A
:101D00000150FEF7E6FF00214DF20250FEF7E1FF21
:101D100034214DF20350FEF7DCFF00214DF2045058
:101D2000FEF7D7FF3A214DF20550FEF7D2FF002112
:101D30004DF20650FEF7CDFF4A214DF20750FEF757
:101D4000C8FF00214DF20850FEF7C3FF5C214DF2A1
:101D50000950FEF7BEFF00214DF20A50FEF7B9FF11
:101D600081214DF20B50FEF7B4FF00214DF20C50D3
:101D7000FEF7AFFFA6214DF20D50FEF7AAFF00219E
:101D80004DF20E50FEF7A5FFE5214DF20F50FEF784
:101D9000A0FF01214DF21050FEF79BFF13214DF2E1
:101DA0001150FEF796FF01214DF21250FEF791FF00
:101DB00054214DF21350FEF78CFF01214DF21450C7
:101DC000FEF787FF82214DF21550FEF782FF0121B9
:101DD0004DF21650FEF77DFFCA214DF21750FEF767
:101DE00078FF02214DF21850FEF773FF00214DF2EB
:101DF0001950FEF76EFF02214DF21A50FEF769FFEF
:101E000001214DF21B50FEF764FF02214DF21C50E0
:101E1000FEF75FFF34214DF21D50FEF75AFF0221FD
:101E20004DF21E50FEF755FF67214DF21F50FEF791
:101E300050FF02214DF22050FEF74BFF84214DF25E
:101E40002150FEF746FF02214DF22250FEF741FFDE
:101E5000A4214DF22350FEF73CFF02214DF2245005
:101E6000FEF737FFB7214DF22550FEF732FF022172
:101E70004DF22650FEF72DFFCF214DF22750FEF7F1
:101E800028FF02214DF22850FEF723FFDE214DF2FC
:101E90002950FEF71EFF02214DF22A50FEF719FFCE
:101EA000F2214DF22B50FEF714FF02214DF22C507F
:101EB000FEF70FFFFE214DF22D50FEF70AFF032122
:101EC0004DF22E50FEF705FF10214DF22F50FEF778
:101ED00000FF03214DF23050FEF7FBFE33214DF29F
:101EE0003150FEF7F6FE03214DF23250FEF7F1FEBF
:101EF0006D214DF23350FEF7ECFE00214FF45640B9
:101F0000FEF7E7FE33214DF20160FEF7E2FE00210D
:101F10004DF20260FEF7DDFE34214DF20360FEF764
:101F2000D8FE00214DF20460FEF7D3FE3A214DF2B7
:101F30000560FEF7CEFE00214DF20660FEF7C9FEF9
:101F40004A214DF20760FEF7C4FE00214DF2086001
:101F5000FEF7BFFE5C214DF20960FEF7BAFE0021DC
:101F60004DF20A60FEF7B5FE81214DF20B60FEF7DF
:101F7000B0FE00214DF20C60FEF7ABFEA6214DF243
:101F80000D60FEF7A6FE00214DF20E60FEF7A1FEE9
:101F9000E5214DF20F60FEF79CFE01214DF210602D
:101FA000FEF797FE13214DF21160FEF792FE01211C
:101FB0004DF21260FEF78DFE54214DF21360FEF7D4
:101FC00088FE01214DF21460FEF783FE82214DF25E
:101FD0001560FEF77EFE01214DF21660FEF779FED8
:101FE000CA214DF21760FEF774FE02214DF218600F
:101FF000FEF76FFE00214DF21960FEF76AFE022126
:102000004DF21A60FEF765FE01214DF21B60FEF7EE
:1020100060FE02214DF21C60FEF75BFE34214DF2A2
:102020001D60FEF756FE02214DF21E60FEF751FEC6
:1020300067214DF21F60FEF74CFE02214DF2206039
:10204000FEF747FE84214DF22160FEF742FE022199
:102050004DF22260FEF73DFEA4214DF22360FEF713
:1020600038FE02214DF22460FEF733FEB7214DF217
:102070002560FEF72EFE02214DF22660FEF729FEB6
:10208000CF214DF22760FEF724FE02214DF2286099
:10209000FEF71FFEDE214DF22960FEF71AFE022137
:1020A0004DF22A60FEF715FEF2214DF22B60FEF78D
:1020B00010FE02214DF22C60FEF70BFEFE214DF2C8
:1020C0002D60FEF706FE03214DF22E60FEF701FEA5
:1020D00010214DF22F60FEF7FCFD03214DF2306020
:1020E000FEF7F7FD33214DF23160FEF7F2FD0321DB
:1020F0004DF23260FEF7EDFD6D214DF23360FEF7DB
:10210000E8FD55214FF47040FEF7E3FDAA214FF2A0
:102110000100FEF7DEFD52214FF20200FEF7D9FD6D
:1021200008214FF20300FEF7D4FD00214FF2040016
:10213000FEF7CFFDCC214FF43140FEF7CAFD002160
:102140004BF20110FEF7C5FD05214FF43640FEF7B6
:10215000C0FD70214FF43740FEF7BBFD70214BF2FC
:102160000170FEF7B6FD01214FF43840FEF7B1FDD6
:1021700003214BF60100FEF7ACFD03214BF60200F4
:10218000FEF7A7FD03214BF60300FEF7A2FD022197
:102190004FF43C40FEF79DFD00214BF60140FEF759
:1021A00098FD00214BF60240FEF793FDD0214FF43D
:1021B0004940FEF78EFD02214CF60110FEF789FD25
:1021C00050214CF60210FEF784FD50214CF603100E
:1021D000FEF77FFD50214CF60410FEF77AFD00213A
:1021E0004FF45450FEF775FD55214FF46850FEF73B
:1021F00070FD4FF48850FEF75DFD782000F0F3FA93
:102200004FF42450FEF756FD0020FEF7DFFE0120BC
:10221000F74908604FF6FF70FEF761FF1FB000BD81
:102220002DE9FC4F05460E4617469846DDF82C90E2
:1022300000200190EF48808846F60401884229D1A9
:10224000EC488079012825D1AB463546E94800881D
:10225000C01B401E86B24746E6480088A0EB0B0034
:10226000401E1FFA80F80020E24988712A20488128
:102270002B20888143463A4631462846CDF80090C7
:10228000FFF7CEFF0120DB4988712B2048812A20EF
:1022900088811CE0781B401C80B20190344614E019
:1022A00021462846FEF742FDFEF723FD4FF0000AC7
:1022B00006E0D148A0F800900AF101001FFA80FA68
:1022C00001988245F5DB601C84B24445E8DDBDE839
:1022D000FC8F2DE9F84F07460D4690469946DDF8EC
:1022E00028B0A8EB0700401C1FFA80FAA9EB0500F4
:1022F000401C80B20090002414E0281981B23846B6
:10230000FEF714FDFEF7F5FC002607E004FB0A606B
:102310003BF81000B8490880701C86B25645F5DBC2
:10232000601C84B200988442E7DBBDE8F88F2DE999
:10233000FF4F84B081468A460020039002900698A1
:10234000A0EB09050798A0EB0A06CDF80490CDF89C
:1023500000A0002D01DD012705E00DB9002702E0F6
:102360004FF0FF376D42002E02DD4FF0010806E00E
:1023700016B94FF0000802E04FF0FF387642B54240
:1023800001DD2C4600E034464FF0000B21E0009ABE
:1023900091B2019A90B2FEF7B8FD039828440390D9
:1023A0000298304402900398A04205DD0398001B78
:1023B00003900198384401900298A04205DD0298EC
:1023C000001B02900098404400900BF101001FFA9E
:1023D00080FB601C8345DADD08B0BDE8F08FF0B506
:1023E00004460D4616461F462B46324629462046D1
:1023F000FFF79DFF3B46224629462046FFF797FF01
:102400003B46324639462046FFF791FF3B4632466F
:1024100029463046FFF78BFFF0BD2DE9F043064615
:102420000F469046002445460320A0EB48093CE0B7
:102430007A1B91B2321990B2FEF767FD3A1B91B246
:10244000721990B2FEF761FD3A1991B2721990B209
:10245000FEF75BFD7A1991B2321990B2FEF755FD85
:102460007A1991B2321B90B2FEF74FFD3A1991B230
:10247000721B90B2FEF749FD7A1B91B2321B90B2EB
:10248000FEF743FD3A1B91B2721B90B2FEF73DFD81
:10249000641CB9F1000F03DAA000801D814404E040
:1024A000601B80000A3081446D1EAC42C0DDBDE877
:1024B000F0832DE9F84F80460E4617461C46B3467A
:1024C0002046E31704EB5373DB1021464FEAE47C0C
:1024D00004EB5C7C4FEAEC0CA4EBCC0CBCF1000FE1
:1024E00002D04FF0010C01E04FF0000C6344224693
:1024F00004EBD27C4FEA6C0C03FB0CF3DBB20093D1
:10250000A7F12000C7B2002556E00C2C07D107EB3D
:1025100047003A4901EB800010F8059013E0102CB9
:1025200005D1374800EB071010F805900BE0182C88
:1025300007D107EBC700334901EB800010F8059085
:1025400001E0BDE8F88F4FF0000A2FE009F08000AD
:1025500030B12D48028831464046FEF7E5FC07E0E1
:102560000A9828B92948028831464046FEF7DCFC23
:102570004FEA49604FEA1069701C86B21D484088D6
:10258000B04200DCDDE7A6EB0B00A0420AD15E46BC
:1025900008F101001FFA80F816480088404500DC69
:1025A000CFE706E00AF1010000F0FF0ABAF1080FD8
:1025B000CCDB00BF681CC5B200988542A5DB00BF1C
:1025C000BFE710B50246012000E050430B1EA1F109
:1025D0000104E1B2F9D110BD2DE9FF4F81B00746EA
:1025E00091461E460E9D4FF0000A00244AE000006E
:1025F00080812142180100200008006C4267000819
:10260000B66B0008A6710008F2000020F40000205C
:10261000301B401EC1B20A20FFF7D3FFB9FBF0F018
:102620000A21B0FBF1F201FB1208BAF1000F16D13A
:10263000701EA04213DDB8F1000F0ED10020AB4692
:1026400005EBDB71491001FB0471009088B22B4649
:1026500020220299FFF72DFF12E04FF0010A00201F
:10266000AB4605EBDB71491001FB0471009088B2A9
:1026700008F13001CAB22B460299FFF71AFF00BFDA
:10268000601CC4B2B442C3DB05B0BDE8F08F2DE9D5
:10269000FF4F82B0064692461F46DDE90F480020F4
:1026A000019000254DE0781B401EC1B20A20FFF7C3
:1026B00088FFBAFBF0F00A21B0FBF1F201FB12092E
:1026C000019850BB781EA84227DDB9F1000F22D136
:1026D00008F0800078B108F00100A34604EBDB713C
:1026E000491001FB0561009088B22346302203990E
:1026F000FFF7DFFE0EE008F00100A34604EBDB71FC
:10270000491001FB0561009088B2234620220399FD
:10271000FFF7CFFE13E00120019008F00100A3466F
:1027200004EBDB71491001FB0561009088B209F1EF
:102730003001CAB223460399FFF7BBFE00BF681CF5
:10274000C5B2BD42AFDB06B0BDE8F08F2DE9F8475A
:1027500004460D4690469946DDE9096704F0FF0AF4
:1027600008EB04001FFA80F809EB05001FFA80F956
:1027700016E0444502DB5446A81985B24D4500DBFE
:1027800014E0002000903A78334629462046FFF7AF
:1027900090FE304606EBD07104EB61018CB27F1CD9
:1027A00038787E2802DC38782028E2DA00BFBDE8DD
:1027B000F887000010B56FF0040000F074F92E489F
:1027C00000682E49B0FBF1F02D49087008460078EA
:1027D00000EB4001C1EBC0104FF6FF7101EAC000F1
:1027E0002849088010BD0146254A12784A434FF017
:1027F000E0235A6100229A611A46126942F00102EE
:102800001A6100BF4FF0E022106900F001021AB116
:1028100000F48032002AF5D04FF0E022126922F055
:1028200001024FF0E0231A6100229A6170470146CD
:10283000144A12884A434FF0E0235A6100229A61F9
:102840001A46126942F001021A6100BF4FF0E022FD
:10285000106900F001021AB100F48032002AF5D0AC
:102860004FF0E022126922F001024FF0E0231A61DA
:1028700000229A6170470000DC00002000127A00FC
:10288000F6000020F8000020014600BF704700BF9E
:10289000494A128802F04002002AF9D0C2B2464BDF
:1028A0001B1D1A80704710B586B00446012144F202
:1028B000040000F039FF4FF40070ADF8140003205D
:1028C0008DF8160018208DF8170005A93B4800F078
:1028D0006FFC4FF48060ADF8140004208DF81700F1
:1028E00005A9364800F064FC25208DF8000003207F
:1028F0008DF801008DF8020001208DF80300684674
:1029000000F087F801940020ADF80800ADF80A0047
:10291000ADF80C00ADF810000C20ADF80E0001A9C8
:10292000254800F0A8FF012240F22551224801F07D
:102930003AF80121204801F02AF806B010BD10B580
:1029400040F225511C4801F013F910B31A4801F068
:102950008FF8C4B21A48008800F40040C8B918487B
:10296000008800F4804060B10A2C03D00020144994
:10297000088020E01248008840F400401049088098
:1029800019E00D2C06D10E48008840F480400C4917
:10299000088010E00A480088C0F30D0009490C5473
:1029A00007480088401C0649088008460088C72858
:1029B00001DD0020088010BD003801400008014002
:1029C00000010020260100200948804709480047EF
:1029D000FEE7FEE7FEE7FEE7FEE7FEE7FEE7FEE7CF
:1029E000FEE7FEE704480549054A064B704700002C
:1029F0008F0A000831010008500200205008002012
:102A0000500400205004002031490143314A116034
:102A1000704770B5002100230F22C47804B32D4CF9
:102A2000246804F4E064C4F5E064210AC1F10403FD
:102A3000CA40447804FA03F1847814402143090120
:102A4000254C0678A155047804F01F050124AC40FC
:102A500005786D11AD0005F1E025C5F8004109E0EC
:102A6000047804F01F050124AC401C4D0678761153
:102A700045F8264070BD1A4A0A400243154B1B1FF9
:102A80001A60704739B1134A121D12680243114B84
:102A90001B1D1A6006E00F4A121D126882430D4B7F
:102AA0001B1D1A607047042808D14FF0E021096906
:102AB00041F004014FF0E022116107E04FF0E02106
:102AC000096921F004014FF0E02211617047000014
:102AD0000000FA050CED00E000E400E080E100E019
:102AE00080FFFF1F30B943F2DB028100A1F1C0413A
:102AF0000A6005E043F2D2028100A1F1C0410A6000
:102B00006FF07042411C8900A1F1C0410A60810050
:102B1000A1F1C041C1F80421704710280AD1182141
:102B20004FF020421166402151664FF0FC31916612
:102B3000D16610E01821F74A116040214FF0204281
:102B4000C2F884104FF0FC31F24A083211604FF0A5
:102B50002042C2F88C1070471820EE4920310860DE
:102B600000200906C1F8A4004FF0FC30E9492831E3
:102B70000860091D0860091D08607047D0E901124E
:102B80001143C268114302691143426911438269CA
:102B90001143C2691143026A1143426A1143826AB6
:102BA0001143C26A1143026B114302689200A2F101
:102BB000C0421160816808290BD101688900A1F128
:102BC000C041096841F0400201688900A1F1C0419B
:102BD0000A60416B0968426B526841EA0211426B1C
:102BE000926841EA0221426B928941EA0241426BBA
:102BF000128A41EA0251426B127D41EA0261426B44
:102C0000926911430268521C9200A2F1C042116005
:102C1000C16AB1F5804F1BD1816B0968826B526824
:102C200041EA0211826B926841EA0221826B128AA8
:102C300041EA0251826B127D41EA0261826B926924
:102C4000114302689200A2F1C042C2F8041107E0E9
:102C50006FF0704201688900A1F1C041C1F8042100
:102C6000704730B5002100220023446844F0080476
:102C700085682C43C5682C4305692C43456944EAA3
:102C80004524856944EA4531C4692468C5696D688D
:102C900044EA0524C5692D8944EA0544C5692D7BAC
:102CA00044EA0562046A2468056A6D6844EA0524FA
:102CB000056A2D8944EA0544056A2D7B44EA0563CB
:102CC0000468102C05D14FF020442166A266E3660B
:102CD00008E0904C21604FF02044C4F888208D4CCF
:102CE0000C34236030BD016841F01001426841EAB4
:102CF0004221826841EA4231864A20321160C1682D
:102D00000968C268526841EA0221C268128941EA30
:102D10000241C268127B41EA02617E4A2832116098
:102D2000016909680269526841EA0221026912894F
:102D300041EA02410269127B41EA0261754A2C3282
:102D40001160416909684269526841EA0221426999
:102D5000128941EA02414269127B41EA02614FF065
:102D60002042C2F8B010704700210160022141608A
:102D700000218160C160016141618161C1610162C5
:102D80004FF480514162490081620021C1620163B8
:102D90000F21426B1160426B5160FF21426B9160C9
:102DA0000F21426BD160426B1161426B5161002176
:102DB000426B91610F21826B1160826B5160FF2128
:102DC000826B91600F21826BD160826B1161826B8B
:102DD00051610021826B91617047102101600021D7
:102DE00041608160C160016141618161FC21C26912
:102DF0001160C2695160C2699160C269D160026AA2
:102E00001160026A5160026A9160026AD160704783
:102E10000021016041608160FC21C2681160C268CC
:102E20005160C2689160C268D16002691160026934
:102E30005160026991600269D16042691160426922
:102E40005160426991604269D160704751B182001E
:102E5000A2F1C042126842F001038200A2F1C04216
:102E6000136009E08200A2F1C04212682A4B1A40A6
:102E70008300A3F1C0431A60704799B1102808D1AC
:102E80004FF02042126E42F004024FF020431A66C7
:102E90001DE0204A126842F004024FF02043C3F8BC
:102EA000802014E0102809D14FF02042126E1A4BF6
:102EB000DB1E1A404FF020431A6608E0154A1268DC
:102EC000154BDB1E1A404FF02043C3F8802070479B
:102ED00048B110492031096841F004014FF0204207
:102EE000C2F8A01009E00B49203109680A4AD21E35
:102EF00011404FF02042C2F8A0107047B9B110281D
:102F00000CD14FF02042126E42F040024FF02043AD
:102F10001A661FE0800000A0FEFF0F00724A1268D0
:102F200042F040024FF02043C3F8802012E0102806
:102F300008D14FF02042126E6C4B1A404FF02043E4
:102F40001A6607E0684A1268684B1A404FF020433F
:102F5000C3F88020704701460020102903D14FF0AC
:102F60002042506F02E0604A14321068704710B57A
:102F7000F2B1102807D14FF020435B6E0B434FF0A6
:102F80002044636632E0B0F5807F08D1564B1B1DAC
:102F90001B680B434FF02044C4F8843026E0524BAA
:102FA00024331B680B434FF02044C4F8A4301DE0C9
:102FB000102807D14FF020435B6E8B434FF0204425
:102FC000636613E0B0F5807F08D1474B1B1D1B687B
:102FD0008B434FF02044C4F8843007E0424B243345
:102FE0001B688B434FF02044C4F8A43010BD10B5CB
:102FF000024600200023102A03D14FF02044636EC4
:1030000009E0B2F5807F03D1374C241D236802E02C
:10301000354C2434236803EA01040CB1012000E09C
:10302000002010BD102807D14FF02042526E8A4375
:103030004FF020435A6613E0B0F5807F08D12A4A4A
:10304000121D12688A434FF02043C3F8842007E022
:10305000254A243212688A434FF02043C3F8A42043
:10306000704770B502460020002300240025102A76
:1030700003D14FF02046736E09E0B2F5807F03D193
:10308000194E361D336802E0174E2436336803EAC2
:10309000010403EAD10514B10DB1012000E00020C4
:1030A00070BD102808D14FF02042526E22EAD102A2
:1030B0004FF020435A6615E0B0F5807F09D10A4AE7
:1030C000121D126822EAD1024FF02043C3F8842077
:1030D00008E0054A2432126822EAD1024FF0204368
:1030E000C3F8A42070470000800000A0BFFF0F00BD
:1030F00010B50446CC48844208D10121042000F0D8
:103100002DFB0021042000F029FB46E0C748844243
:1031100008D10121082000F021FB0021082000F047
:103120001DFB3AE0C248844208D10121102000F082
:1031300015FB0021102000F011FB2EE0BD48844259
:1031400008D10121202000F009FB0021202000F0FF
:1031500005FB22E0B848844208D10121402000F05C
:10316000FDFA0021402000F0F9FA16E0B34884424D
:1031700008D10121802000F0F1FA0021802000F028
:10318000EDFA0AE0AE48844207D10121801500F033
:10319000E5FA0021A01500F0E1FA10BD10B50121FB
:1031A000084600F0DBFA0021012000F0D7FA10BD3C
:1031B0002DE9F041024600250026002000230024CE
:1031C000002791F803C00CF00F0591F803C00CF034
:1031D000100CBCF1000F03D091F802C04CEA0505B9
:1031E00091F800C0BCF1000F31D0146800202BE032
:1031F0004FF0010C0CFA00F3B1F800C00CEA030622
:103200009E4220D183004FF00F0C0CFA03F7BC4311
:1032100005FA03FC4CEA040491F803C0BCF1280F42
:1032200006D14FF0010C0CFA00FCC2F814C00AE001
:1032300091F803C0BCF1480F05D14FF0010C0CFA16
:1032400000FCC2F810C0401C0828D1D31460B1F8AB
:1032500000C0BCF1FF0F34DD546800202EE000F107
:10326000080C4FF0010808FA0CF3B1F800C00CEAA2
:1032700003069E4221D183004FF00F0C0CFA03F796
:10328000BC4305FA03FC4CEA040491F803C0BCF10A
:10329000280F05D100F1080C08FA0CF8C2F81480C8
:1032A00091F803C0BCF1480F07D100F1080C4FF0B2
:1032B000010808FA0CF8C2F81080401C0828CED388
:1032C0005460BDE8F0814FF6FF71018002218170EA
:1032D0000421C17070470246002093680B400BB177
:1032E000012000E0002070470146886880B27047E6
:1032F00002460020D3680B400BB1012000E0002003
:1033000070470146C86880B27047016170474161EB
:1033100070470AB1016100E041617047C1607047C8
:103320004FF480320A4382618161826182698269DD
:10333000704702460020434B18684FF680731840D0
:1033400040EA021008433F4B186070473E49C8618D
:103350007047F0B50A46002300240021002500F044
:103360000046B6F1004F02D1364EF16901E0354E0C
:103370007168C0F3034583B200F44016B6F5401FF0
:1033800008D121F070612F4E766826F070662D4FBF
:103390007E6012E000F48016B6F5801F06D1032689
:1033A00006FA05F4A14341F0706106E0460D3601CE
:1033B00003FA06F6B14341F0706122B1460D3601C1
:1033C00003FA06F6314300F00046B6F1004F02D191
:1033D0001C4EF16101E01B4E7160F0BD30B5002262
:1033E0008B071C0F0F2303FA04F2164B08338C10C3
:1033F00053F824309343134C08348D1044F825308F
:1034000023468C1053F824308C07240F00FA04F460
:1034100023430C4C08348D1044F8253030BD0A4944
:10342000DC3108607047000000080140000C0140DA
:10343000001001400014014000180140001C014030
:10344000002001400000014000002042DF480068E9
:1034500040F00100DD49086008464068DC4908404A
:10346000DA49486008460068DA490840D7490860E8
:103470000846006820F4802008600846406820F470
:10348000FE0048604FF41F0088607047CF4909680C
:1034900021F48031CD4A11601146096821F4802160
:1034A0001160B0F5803F03D0B0F5802F0ED106E05B
:1034B000C649096841F48031C44A116007E0C34934
:1034C000096841F4A021C14A116000E000BF00BFBB
:1034D000704710B501460022002300204A11012A3E
:1034E00002D1BA4C236806E0022A02D1B74C236A03
:1034F00001E0B64C636A01F01F02012494401C40B5
:103500000CB1012000E0002010BD38B50020009073
:103510000024002500BF3120FFF7DBFF054600989F
:10352000401C00900098B0F5A06F01D0002DF2D0A3
:103530003120FFF7CEFF08B1012400E0002420462F
:1035400038BD01460020A14A106820F0F80040EA8A
:10355000C10010607047A049086070470246002013
:103560009A4B586820F47C1042EA01031843974BA9
:103570005860704798490866704701460020934A92
:10358000506820F003000843506070478F4840683F
:1035900000F00C007047014600208C4A506820F073
:1035A000F00008435060704701460020874A506889
:1035B00020F4E06008435060704701460020834AD1
:1035C000506820F4605040EAC1005060704729B153
:1035D0007E4A527A02437D4B5A7204E07B4A527A09
:1035E00082437A4B5A7270477B49D83108607047E2
:1035F00001460020754A506820F44040084350605E
:1036000070470021714A20321170704A82F82010F0
:10361000012802D004280AD104E001216B4A20329B
:10362000117005E00521694A2032117000E000BFE9
:1036300000BF70476949086070476449096A0143DF
:10364000624A11627047654944390860704730B575
:1036500000210022002400235C4D6D6805F00C0160
:1036600021B1042905D0082923D105E05C4D05606E
:1036700022E05B4D05601FE0544D6D6805F470124B
:10368000524D6D6805F48034022505EB92421CB959
:10369000544D554305600BE04C4D6D6805F4003505
:1036A0001DB1504D5543056002E04D4D5543056039
:1036B00002E04B4D056000BF00BF444D6D6805F052
:1036C000F0010909484D6B5C0568DD4045603F4DE0
:1036D0006D6805F4E061090A434D6B5C4568DD40A7
:1036E00085603A4D6D6805F46051C90A3E4D6B5CCA
:1036F0004568DD40C560354D6D6805F44041890B76
:103700003A4D6B5CC568B5FBF3F5056130BD29B179
:103710002E4A526902432D4B5A6104E02B4A5269EA
:1037200082432A4B5A61704729B1284A9269024361
:10373000264B9A6104E0254A92698243234B9A61A1
:10374000704729B1214AD2690243204BDA6104E073
:103750001E4AD26982431D4BDA61704729B11B4A68
:10376000D2680243194BDA6004E0184AD2688243F7
:10377000164BDA60704729B1144A12690243134BA1
:103780001A6104E0114A12698243104B1A617047B2
:1037900012494039086070470F49C86470470B49A7
:1037A000C87170470948406A40F080700749486214
:1037B000704701460020054A92680A400AB101207C
:1037C00000E00020704701498872704700100240F5
:1037D0000000FFF8FFFFF6FE000042428004424274
:1037E00000127A0000093D000201002012010020B1
:1037F00010B50446FB48844209D101218803FFF734
:10380000ADFF00214FF48040FFF7A8FF32E0F648FB
:10381000844209D101214804FFF7ADFF00214FF494
:103820000030FFF7A8FF25E0F048844209D10121CC
:103830008804FFF7A0FF00214FF48020FFF79BFFD3
:1038400018E0EB48844209D10121C804FFF793FF37
:1038500000214FF40020FFF78EFF0BE0E548844283
:1038600008D101210805FFF786FF00214FF48010E1
:10387000FFF781FF10BD2DE9F04786B005460E46E3
:103880000024A24600BFA1460027B08900B100BFB6
:103890002F462C8A4CF6FF700440F08804432C829B
:1038A000AC894EF6F3100440B08831890843718921
:1038B00008430443AC81AC8A4FF6FF400440B08912
:1038C0000443AC8201A8FFF7C2FEC648874202D17A
:1038D000DDF810A001E0DDF80CA0A88900F400409C
:1038E00040B10AEBCA0000EB0A1031684900B0FB96
:1038F000F1F807E00AEBCA0000EB0A103168890012
:10390000B0FBF1F86420B8FBF0F004012009642159
:1039100001FB1089A88900F4004040B1322000EB7F
:10392000C900B0FBF1F000F00700044308E03220CA
:1039300000EB09106421B0FBF1F000F00F0004432C
:103940002C8106B0BDE8F0874FF4165101600021CC
:103950008180C18001810C214181002181817047DA
:1039600010B502460020108A4FF2FF0318400B8862
:103970004C8823438C882343CC88234318431082EC
:1039800010BD0021018041808180C180704721B13C
:10399000828942F40052828104E082894DF6FF73ED
:1039A0001A4082817047F0B50346002400260025A6
:1039B000002040F66A17B94200D100BF1846C1F393
:1039C000421401F01F06012707FA06F5012C01D168
:1039D0000C3004E0022C01D1103000E014301AB198
:1039E00007682F43076002E00768AF430760F0BD38
:1039F0001AB1838A0B43838202E0838A8B438382DA
:103A00007047028A4FF6F0731A400282028A0A4314
:103A10000282704782894FF2FF731A408281828945
:103A20000A438281704721B1828942F00202828179
:103A300004E082894FF6FD731A4082817047028A42
:103A40004FF6DF731A400282028A0A4302827047ED
:103A500021B1028A42F48042028204E0028A4BF6DB
:103A6000FF731A4002827047C1F3080282807047D8
:103A700001468888C0F308007047818941F0010140
:103A800081817047028BD2B20283028B42EA01220B
:103A900002837047028B02F47F420283028B0A4347
:103AA0000283704721B1828A42F02002828204E0C0
:103AB000828A4FF6DF731A408282704721B1828A70
:103AC00042F01002828204E0828A4FF6EF731A40BD
:103AD0008282704721B1828A42F00802828204E029
:103AE000828A4FF6F7731A408282704721B1828929
:103AF00042F40042828103E08289C2F30E02828195
:103B0000704721B1828A42F40062828204E0828A94
:103B10004FF2FF731A4082827047828A4FF6FB731E
:103B20001A408282828A0A438282704721B1828A45
:103B300042F00202828204E0828A4FF6FD731A404C
:103B40008282704702460020B1F5007F00D100BF9D
:103B500013880B400BB1012000E00020704701F4F6
:103B60000072B2F5007F00D100BFCA4302807047E7
:103B700070B50246002400230025002040F66A1696
:103B8000B14200D100BFC1F3421501F01F0301266D
:103B900006FA03F3012D02D19689334006E0022D87
:103BA00002D1168A334001E0968A33400C12012676
:103BB00006FA04F41688344013B10CB1012000E079
:103BC000002070BD10B50022002340F66A14A14207
:103BD00000D100BF0A1201249440A3B2DC43048048
:103BE00010BD000000380140004400400048004083
:103BF000004C004000500040704700000FB40449E2
:103C000010B503AA029800F0A9FB10BC5DF814FBE4
:103C1000FC00002070B5044685690068C10601D526
:103C2000302600E02026C00707D070BDD4E901216E
:103C300030469047206A401C20626D1EF6D570BD4C
:103C400070B5044685690078C00707D170BDD4E916
:103C5000012120209047206A401C20626D1EF6D56D
:103C600070BD00002DE9F04106460024106875295A
:103C7000314616A510D0AFF30080002802DA40428A
:103C800013A507E031688A0701D512A502E04907AC
:103C900004D511A5012401E0AFF3008000210A2220
:103CA00006F1240709E0B0FBF2FCB0FBF2F302FBE3
:103CB0001C00303078541846491C0028F3D12346A4
:103CC0002A463046BDE8F04100F0DFB800000000B1
:103CD0002D0000002B0000002000000070B50446FD
:103CE0000D4621461068AFF300802188090502D5F2
:103CF0000F4A7A4402E00E4A7A440E32002104F15F
:103D0000240305E000F00F060009965D5E54491C8F
:103D10000028F7D120780023000704D5702D02D0A9
:103D200009B1022311322046BDE8704000F0ADB861
:103D30000C4200002DE9F05F894604464FF0000A6E
:103D4000DFF824B1FB44C0F820A02046E168884792
:103D500000287DD0252806D0D4E901219047206A8B
:103D6000401C2062F1E700255F462046E168884755
:103D70002028064607DB312E05D2B81910F8200C92
:103D800008B10543F1E7A80701D525F00405C4F8FB
:103D90001CA00027C4F818A02A2E09D0304601F034
:103DA00079FB38B304EB8708303EC8F8186019E097
:103DB00059F8041B204604EB87029161E1688847AB
:103DC000012F064618D1E069002820DA25F02005E9
:103DD0001DE0D8F8180000EB800006EB40003038FA
:103DE000C8F818002046E1688847064601F052FBF3
:103DF0000028EED1012F0AD02E2E08D12046E168EE
:103E000088477F1C0646022F45F02005C4DBA069C9
:103E1000002803DA404245F00105A061E80701D01F
:103E200025F01005A6B1A6F14100192802D82036C8
:103E300045F400654A463146204625604D46FCF76C
:103E4000B1F960B1012807D0ED1D25F0070000E0B1
:103E500007E000F1080978E705F1040975E7304645
:103E60007AE7206ABDE8F09FE241000070477047A2
:103E70007047704710B500F087FA006810BD10B5A4
:103E8000044600F081FA046010BD2DE9F0470D46AC
:103E900099469246044600F124080168880604D534
:103EA000E06921F01001216000E00120A84201DD5D
:103EB000471B00E00027A1697A1902EB0900081AE4
:103EC000A0612078C00602D42046FFF7A3FE00269A
:103ED00008E0D4E901211AF806009047206A401C46
:103EE000761C20624E45F4DB2078C0060AD52046B9
:103EF000FFF790FE06E0D4E9012130209047206AC8
:103F0000401C2062381EA7F10107F4DC07E0D4E969
:103F1000012118F805009047206A401C2062281EE5
:103F2000A5F10105F3DC2046FFF78AFE20780006A4
:103F300002D50220BDE8F0870120FBE770472DE99C
:103F4000FF4F0C461E464FF0FF378BB0D2E9000101
:103F5000DDF860800A908A46C1F30A5505B93D46EE
:103F6000002108464FF00000BAF1000F00F44000B5
:103F700005DA00EB80004FF4400101EA50004FEAFF
:103F80009059B9F1010F00DDB9460A9850EA4A008C
:103F90000ED044F61050A5F2FF3545432F14B8F16A
:103FA000000F1ED07542291E1EDDC9F100021CE063
:103FB000B8F1010F4FF0000001D0302103E0F243CF
:103FC00005E02154401CB042FBDB304600220021BA
:103FD00021540B99C1F80880C1E900200FB0BDE859
:103FE000F08FBD1B6D1CDEE74A4600DA694206A869
:103FF00000F06CFA06AB93E8070003AB83E8070018
:1040000050460A9900F04AFB8DE80700A0F50050E1
:104010001F3800900398002D0ADD42F21F014A4626
:104020000844002303A90390684600F0B3FD09E0AB
:10403000A0F500504A461F38002303A903906846A4
:1040400000F0BDFD8DE807000004000C03D04FF028
:10405000FF30410800E01046B8F1000F03D0002205
:10406000009215461EE0751E05D400F091F930321D
:1040700062556D1EF9D5B3460122084302D00022D5
:104080007F1C04E02078302801D100227F1E002A06
:10409000099784D01DE0112D07DA00F079F930324C
:1040A00062556D1C50EA0102F5D1084302D0009818
:1040B000C8B10EE00021681E05E0235C625C635419
:1040C0002254401E491C8142F7DBAB46A81B401E10
:1040D0000990002004F80B000B98099AC0F808809A
:1040E000C0E9002B7AE711264FF0000857E72DE9C9
:1040F000F04F88460446D21D22F0070191B0D1E965
:104100000001CDE90A0100F091FE02460B98C00FB4
:1041100001D02D2007E02068810701D52B2002E087
:10412000202101EAC000032A099001D0072A05DBFB
:1041300003464146204600F089F90BE120788006CD
:1041400001D5E06900E00620B8F1650F814606D090
:10415000B8F1660F18D0B8F1670F70D131E00020C8
:10416000B9F1110F009001DB112301E009F1010306
:104170000AAA01A90CA8FFF7E2FEDDE90C700026EF
:1041800009F10105834647E001204B4600904FF0BE
:1041900000470AAA01A90CA8FFF7D1FEDDE90DB07E
:1041A0000C995D46002610B909F101000D18B9EB14
:1041B000050003D4C0F1FF3609F10105A5EB0900A4
:1041C0002BE0B9F1010F01DA4FF001090020B9F13C
:1041D000110F0090484601DD112300E003460AAAB2
:1041E00001A90CA8FFF7ABFEDDE90C704D460026D7
:1041F0008346207800070AD4AB4500DA5D4601A863
:10420000012D04DD411911F8011C302907D04F455B
:1042100002DA17F1040F04DA012082460FE06D1E66
:10422000EEE7002F02DCED1B3E4403E0781CA842C1
:1042300000DD7D1CB81B00F1010A4FF0004720781B
:10424000000703D4AA4501DB4FF0FF3A0021B7F184
:10425000004F0DF143088DF8431024D002202B238A
:10426000002F01DA7F422D230A21021EA0F1010056
:1042700000DC5FB197FBF1FC97FBF1F201FB1C7CCA
:1042800017460CF1300C08F801CDEEE7A8F101005B
:1042900003702188090501D5452100E06521A0F1C1
:1042A000010800F8011C09980FA9A1EB0807FF1DE0
:1042B00000B10120411901EBEA70A1693844081AE4
:1042C000401EA0612078C00602D42046FFF7A2FC61
:1042D000099828B1D4E901219047206A401C206246
:1042E0002078C00622D52046FFF794FC1EE0002E61
:1042F00004DBB34502DD01A8805D00E03020D4E995
:1043000001219047206A401C2062761CAAF101001E
:104310005FEA000A0AD100F033F8C0680168405C27
:10432000D4E901219047206A401C2062281EA5F193
:104330000105DCDC07E0D4E9012118F8010B904706
:10434000206A401C2062381EA7F10107F3DC2046DA
:10435000FFF776FC032011B041E60000074B70B573
:104360000D467B4400F05FF80446284600F020F933
:1043700010B14FF0FF3070BD204670BD29E5FFFF42
:10438000004870471002002000487047F0010020EC
:1043900030B5B0F10A024FEA900E71F100034EEA17
:1043A000817EB0EB0E0061EB91014FEA101E4EEAE8
:1043B000017E10EB0E0041EB11114FEA102E4EEA78
:1043C000016E10EB0E0041EB11214FEA104E4EEA48
:1043D000014E10EB0E0041EB1141401841F100017C
:1043E0004FEAD00040EA41704FEAD10110EB80055E
:1043F0004FEA810444EA907444EB01046D1944EBE4
:104400000404521BA3414FF0000348BF0A3200D5F9
:1044100030BD401C41F1000130BD000001694A1C63
:1044200002610878704700B58FB0CDE901310021F5
:10443000059105497944CDE9031011466846FFF717
:1044400079FC0FB000BD0000E5FFFFFF2DE9F04152
:104450001F46044603260168072A01F4006004DBB6
:1044600008B116A505E016A503E008B115A500E002
:1044700015A521F010002060A069C01EA0610FB139
:10448000401EA0612046FFF7C5FB4FB1D4E90121D2
:1044900038469047206A401C2062C01C206206E01B
:1044A000206AFAE7D4E9012115F8010B9047761E3E
:1044B000F8D22046FFF7C4FBBDE8F0814E414E0024
:1044C0006E616E00494E4600696E66002DE9F04748
:1044D000814616468AB0354878440DC88DE80D00EF
:1044E00032487844801C03AC0DC884E80D0041F6C6
:1044F0009B300844372190FBF1F290FBF1F5A5F1D8
:10450000800501FB12041B3C02D56442012000E03F
:104510000020DFF898A080460027FA44AAF1BE0ADE
:104520000EE0E0070AD03246684607EB4701012358
:104530000AEB810100F043FB8DE8070064107F1C4B
:10454000002CEED1194F7F44AE3F19E0E80715D09B
:1045500007EB04100DF1180A90E80E008AE80E002F
:10456000C068F04201D1981908903246012306A98B
:1045700003A800F024FB03AB83E807006D10641C64
:10458000002DE3D14FF0010332466946B8F1000F28
:1045900003A802D000F0FEFA01E000F010FBC9E928
:1045A0000001C9F808200AB0BDE8F087003C00000F
:1045B000007B00F08000704700487047F001002049
:1045C0007546FFF7F9FFAE4605006946534620F0F1
:1045D0000700854618B020B5FEF704FABDE8204074
:1045E0004FF000064FF000074FF000084FF0000BAF
:1045F00021F00701AC46ACE8C009ACE8C009ACE862
:10460000C009ACE8C0098D46704710B50446AFF349
:1046100000802046BDE81040FBF7E4BD4FF0013CB0
:1046200050F8042B51F8043B9A4221D1A2EB0C0321
:10463000934313EACC1317D150F8042B51F8043BE1
:104640009A4215D1A2EB0C03934313EACC130BD17E
:1046500050F8042B51F8043B9A4209D1A2EB0C0309
:10466000934313EACC13DBD04FF00000704700BF38
:10467000D01A01BAB1FA81F101F0180122FA01F061
:10468000CB40C1F12001DBB2C0B2C01A2CFA01F359
:10469000D11A914311EAC311E6D170475FEA400C89
:1046A00008BF91F0000F4FEA8C234FEAC12243EA82
:1046B00051514FEA1C5018BF00F5F0404FEA30004E
:1046C00018BF41F000415FEA6C5C00F02980BCF14A
:1046D000FF3F08BF40F080407047130C06BF120434
:1046E0004FF0100C4FF0000C130E04BF12020CF12F
:1046F000080C130F04BF12010CF1040C930F04BF3C
:1047000092000CF1020CD30F04BF52000CF1010C0B
:1047100011464FF00002A0F11F00A0EB0C00704703
:1047200011F0004F08BF704731F000413FF4D5AFA2
:104730000B0C06BF09044FF0100C4FF0000C0B0ED1
:1047400004BF09020CF1080C0B0F04BF09010CF1A6
:10475000040C8B0F04BF89000CF1020CCB0F04BFBB
:1047600049000CF1010CCCF12003A0EB0C0022FA63
:1047700003F302FA0CF241EA030100F10100704771
:1047800020F07F4C80EA030023F07F47ACEB070367
:1047900003F57C5300F0004003F1FF032DE980494D
:1047A0004FEA154B09B44FEA144325EA0B4E24EAAD
:1047B00003480FF2042606EB132749083E785FEA08
:1047C000320203FB0667C7F5000707FB06F64FEA50
:1047D00054374FEAD64606F1020607FB066CCCF1C9
:1047E000005C4FEA1C472CEA074C07FB06F40CFB65
:1047F00006F504EB15464FEA961634BF00204FF03D
:1048000000404FEAD13706FB07FC4FEA1C4C0CFB7B
:104810000BF7D21B03FB0CF761EB07010CFB0EF748
:10482000B0EB074072EB17420CFB08F734BFA2EB6A
:104830000742B2EB074261EB17414FEA0C444FEAE3
:10484000910706FB07FC4FEA1C4C0CFB0BF7B0EB87
:10485000C74072EB573203FB0CF734BFA2EBC742E1
:10486000B2EBC74261EB57310CFB0EF7B0EBC70060
:1048700072EB57720CFB08F734BFA2EBC702B2EB26
:10488000C70261EB5771039F4FEA816141EA9211C0
:1048900004EBCC044FEAD1374FEA826206FB07FCF7
:1048A00042EA90124FEA80604FEA1C4C0CFB0BF777
:1048B000D21B03FB0CF761EB07010CFB0EF7B0EB0F
:1048C000074072EB17420CFB08F734BFA2EB07421C
:1048D000B2EB074261EB17414FEA8C554FEA910763
:1048E00004EB9C2406FB07FC4FEA1C4C0CFB0BF76B
:1048F000B0EBC74072EB573203FB0CF734BFA2EBAF
:10490000C742B2EBC74261EB57310CFB0EF7B0EB7D
:10491000C70072EB57720CFB08F734BFA2EBC7025B
:10492000B2EBC70261EB577115EB4C254FEA816181
:1049300041EA92114FEA82624FEAD13742EA90127D
:1049400006FB07FC44F100044FEA80604FEA1C4C70
:104950000CFB0BF7D21B03FB0CF761EB07010CFB05
:104960000EF7B0EB074072EB17420CFB08F734BFB1
:10497000A2EB0742B2EB074261EB174115EB1C15A6
:104980004FEA813141EA92414FEA823242EA904253
:104990004FEA80304FEA0C7644F1000448EA0343C2
:1049A0004EEA0B484FF0000EB2EB080C71EB030718
:1049B00024BF624639464EEB0E0E4FF0000B001836
:1049C000524149414BEB0B0BB2EB080C71EB030767
:1049D0007BF1000B24BF624639464EEB0E0E4FF0C2
:1049E000000B0018524149414BEB0B0BB2EB080C8A
:1049F00071EB03077BF1000B24BF624639464EEB97
:104A00000E0E51EA020718BF46F0010616EB0E76AD
:104A100055F1000254F1000103D5BDE88901BDE85C
:104A20000088BDE88901BDE80048B619524141EB54
:104A30000101A3F10103704780807F7E7D7C7B7A3A
:104A40007978777676757473727171706F6E6E6D3A
:104A50006C6C6B6A6A6968686766666564646363E0
:104A600062616160605F5F5E5E5D5D5C5C5B5B5A66
:104A70005A595958585757565655555554545353D3
:104A800052525251515050504F4F4F4E4E4D4D4D2E
:104A90004C4C4C4B4B4B4A4A4A4949494848484779
:104AA00047474746464645454544444444434343B7
:104AB0004342424242414141002B9C4630D4770060
:104AC0002BD01CB54FEA370703B44FF010004FF05E
:104AD0001001BAF1000F06D0BCF1000FDCBF40F0AE
:104AE000080040F008014FF000000FBCBDE8104086
:104AF0000BF1010BBBF1010F08BF5FEA170722BFE3
:104B000012F1010211F101014FF0004143F10003E4
:104B100000F0004043EA00007047F9D35708D0E79F
:104B200046EA064613F1400F4FEA16461FDD13F121
:104B3000200FDFBF16430A46002120335B42BED060
:104B4000C3F1200746EA064602FA07F74FEA16467F
:104B500046EA0706C3F1200722FA03F201FA07F733
:104B600021FA03F14FF0000342EA0702A7E746EA01
:104B7000020646EA06464FEA164646EA0106BCBF6A
:104B800046EA0646360C4FF000034FF000024FF0A5
:104B9000000194E72DE9804C9A46934670B491E861
:104BA000380007C831EA400C48BF34EA430C03D54B
:104BB000FFF7E6FDFFF780FFF0BCBDE8008C2DE9B4
:104BC000804C9A46934670B491E8380007C810F0BC
:104BD000804F08BF13F0804F03D100F005F8FFF7B6
:104BE0006BFFF0BCBDE8008C20F07F4780EA03003B
:104BF00023F07F4C07EB0C03A3F57C5300F000403F
:104C0000A3F1FE0392F0000F00F0B38095F0000FC7
:104C100000F077802DE901494FEA11404FEA144630
:104C200021EA004800FB06FC24EA064708FB06F6DA
:104C300007FB08F800FB07F718EB06484CEB164C8F
:104C40004FEA124B18EB07484FEA15464CEB17405A
:104C500022EA0B4E0BFB06FC25EA06470EFB06F686
:104C600007FB0EFE0BFB07F71EEB064E4CEB164C3C
:104C70004FF000061EEB074E4CEB174B18EB0B08E2
:104C800040F1000018EB0E0B58EB000840F100005B
:104C90008F1A4FF000013CBFC943661B14BFB5EB30
:104CA000040C00213CBFC943F61B4FEA17444EEAEF
:104CB0008E0E27EA04454FEA1C4704FB07622CEAE4
:104CC000074C05FB07F70CFB05F604FB0CFC16EB89
:104CD000074642EB174216EB0C4642EB1C421BEB1D
:104CE000060658EB0202414146EA9E0601D5BDE8A0
:104CF0000189B619524141EB0101A3F10103BDE85D
:104D000001894FEA14454FEA114724EA054621EA92
:104D1000074C05FB07F406FB07F70CFB06F105FB48
:104D20000CFC11EB074144EB17444FEA124711EB1F
:104D30000C4144EB1C4422EA074C05FB07F206FB3E
:104D400007F70CFB06F605FB0CFC16EB074642EBDF
:104D5000174216EB0C4642EB1C456A1854F1000151
:104D600048BF7047B619524141EB0101A3F101035D
:104D7000704795F0000F37D04FEA11424FEA1447C1
:104D800021EA024624EA074C02FB07F106FB07F77B
:104D90000CFB06F402FB0CFC14EB074441EB17413F
:104DA0004FEA154714EB0C4441EB1C4125EA074C34
:104DB00002FB07F506FB07F70CFB06F602FB0CFCF3
:104DC00016EB074645EB174516EB0C4645EB1C4228
:104DD000121951F1000148BF7047B619524141EB19
:104DE0000101A3F1010370474FEA14454FEA11474F
:104DF00024EA054621EA074C05FB07F106FB07F705
:104E00000CFB06F24FF0000605FB0CFC12EB074210
:104E100041EB174112EB0C4251EB1C4148BF70476C
:104E2000921841EB0101A3F101037047490050EAD8
:104E3000C12018BF04204A0D18BF40F0010040F205
:104E4000FF72B2EB515F08BF40F00200012808BFBB
:104E5000052070472DE9F74F144694B00021C4E9AE
:104E600002111599079121F00045C9498D4206DCD0
:104E70001599C4E9000117B00020BDE8F08FC549BD
:104E8000DFF814A3A9423CDD0799C44E0029C44FA2
:104E9000C44A1599534619DD00F084FF554506D0E4
:104EA000C14AC24B00F07EFFC4E900010AE04FF0A6
:104EB000D352BE4B00F076FF32463B4600F072FF05
:104EC000C4E9000117B00120BDE8F08F00F0D0FB6D
:104ED000554506D0B44AB54B00F0CAFBC4E9000101
:104EE0000AE04FF0D352B14B00F0C2FB32463B46D2
:104EF00000F0BEFBC4E9000117B04FF0FF30BDE881
:104F0000F08FAB49A942159978DB21F00041834627
:104F10008846A84AA84B00F03BFE0022A74B00F0B1
:104F2000A7FB00F0ADFD099000F007FE06460F4616
:104F30009C4A534600F02CFE43465A4600F026FF9A
:104F400080468A46984A994B3046394600F020FE02
:104F50002A0D01250B924246534600F017FF032D00
:104F6000C4E9000139D00B98C1F30A51401A05EB8E
:104F700045111139814230DA9148C346784400EB3B
:104F80000510CDF80CA00C90D0E90023304639462E
:104F900000F0FEFD02460B46049106905846039928
:104FA00000F000FF80468A4602460B4658460399A9
:104FB00000F0F8FE049B069A00F0F4FE83460C987D
:104FC00003913946D0E90223304600F0E1FD5A460C
:104FD000039B00F0E7FE6D1CBDE707980028A2BF09
:104FE000099817B0BDE8F08F616881F000416160F9
:104FF000099817B04042BDE8F08FFFE78446159846
:10500000C1F31301C0F30A50A0F2F5304FEA601863
:1050100000F01F06C6F120001390002006900790B4
:1050200041F4801E05206D4676B1664A08EB00010A
:105030007A4452F8213002EB8101B3404A68139957
:1050400022FA01F1194305E05F4908EB00027944B7
:1050500051F82210A1FB0E27A1FB0C131A449A420F
:1050600034BF0123002303EB070A05EB8003D3E9D8
:1050700001B70F448F4234BF0121002193448B4478
:1050800011B1934502D903E0934501D2012100E01B
:105090000021C3E901B7514445F82010011EA0F1D9
:1050A0000100C1DC0298059F00F10050800F1290B2
:1050B0000298DDE90356800000F03FFD8346284654
:1050C0000D9100F051FD6FF01D0201F0F4FACDE9F1
:1050D0000E01304600F048FD6FF03D0201F0EBFAA2
:1050E00080468A46384600F03FFD6FF05D0201F0D1
:1050F000E2FA074642465346119100F0B9FADDE95B
:105100000E2300F0B5FA5A460D9B00F0B1FA0025C7
:105110000E465A4628460D9B00F044FEDDE90E235C
:1051200000F040FE4246534600F03CFE3A46119BDA
:1051300000F02CFEDFF898A0244A534600F028FD2A
:1051400007468846234A244B3146284600F020FD76
:105150003A46434600F08CFA074688464FF0A8428C
:1051600053463146284600F013FD3A46434600F0C8
:105170007FFA159A12F0004F04D0129A81F0004184
:1051800052421292C4E90001129817B0BDE8F08FA4
:10519000FB21E93F7CD90240FB21F93F7370032ECC
:1051A0008A19A33B000040543163621A61B4D03DB8
:1051B000FB21394183C8C96D305FE43F0000E03F07
:1051C000F02F00006C2F00004E2F0000182D4454CB
:1051D000FB21F93D3326A611460B113C2DE9FF4D6D
:1051E00021F0004807460C46B8F1795F08DA00F074
:1051F00047FC002801BF0020324904B0BDE8F08D13
:105200003A4623461046194600F0C2FC05460246BF
:105210002D480E460B460621784400F05DF82A46DC
:10522000334600F0B5FCDDE9022382468B46384662
:10523000214600F0ADFC04460F4652465B46284628
:10524000314600F0A5FC22463B4600F0ABFD074688
:105250008A464FF0FF322846314601F02CFA1B4AAD
:1052600090450ADA3A46534600F09CFD04B000220D
:10527000BDE8F04D134B00F089BD154A4245A8BF6B
:10528000A8F500154FF00004B8BF124D22462B467A
:1052900000F088FD0646884622462B460020094934
:1052A00000F080FD04460D463A46534630464146DE
:1052B00000F078FD04B022462B46BDE8F04D00F02A
:1052C00065BD00000000F03F242D00003333D33FC4
:1052D0000000E93F0000D23F2DE9F0414F1E00EBF6
:1052E000C7010446D1E9000115461E4637F0060203
:1052F0000DD02A46334600F04BFC7F1E04EBC7035B
:10530000D3E9002300F0B4F937F00602F1D1022FFF
:1053100025D0042F13D0062F18BFBDE8F0812A46F0
:10532000334600F035FCD4E90A2300F0A1F92A46FF
:10533000334600F02DFCD4E9082300F099F92A4601
:10534000334600F025FCD4E9062300F091F92A4603
:10535000334600F01DFCD4E9042300F089F92A4605
:10536000334600F015FCD4E9022300F081F92A4607
:10537000334600F00DFCD4E90023BDE8F04100F015
:1053800077B900002DE9FF4D054621F0004084B0BB
:105390000C46B0F1795F0BDA2846FFF747FD042889
:1053A00008BF00F06FF8284608B02146BDE8F08D30
:1053B0002A460B46104600F0EBFB06460F462A46EF
:1053C000234600F0E5FB804626488A4632463B46A7
:1053D00005217844FFF780FF83461098029160B35F
:1053E000214A224B4046514600F0D2FBCDE9000154
:1053F0005A4640465146029B00F0CAFB8246884608
:10540000DDE906014FF0FF3201F055F952464346FF
:1054100000F0C8FC32463B4600F0BAFBDDE906234B
:1054200000F0C0FCDDE9002300F0BCFC08B02A4617
:105430002346BDE8F04D00F0A9BC0B465A46304665
:10544000394600F0A5FB084A084B00F011F9424626
:10545000534600F09DFB08B02A462346BDE8F04DB8
:1054600000F006B9622C0000495555555555C5BF89
:10547000012201F020B9002213461046114600F027
:10548000A7B90000024A0020110701F014B900007A
:1054900001FDFFFF30380A2801D2012070470020AB
:1054A0007047000000B5244B21F0004287B09A42BB
:1054B000DCBF0022134629DD204B9A4208D140B9B7
:1054C0004FF00100FEF7DBFCFFF7D5FF07B000BD92
:1054D00003DBFFF7CDFF07B000BD02AAFFF7BAFC60
:1054E00010F0030104BF0DF1080C9CE80F000DD073
:1054F000012001290ED0022914D00DF1080C0090D2
:105500009CE80F00FFF73EFF07B000BDFFF766FE07
:1055100007B000BD0DF1080C00909CE80F00FFF7EC
:1055200031FF05E00DF1080C9CE80F00FFF756FE77
:1055300007B081F0004100BDFB21E93F0000F07F92
:1055400000B5254B21F0004287B09A4203DC0022CF
:10555000134600922BE0214B9A4208D140B94FF0FC
:105560000100FEF78CFCFFF786FF07B000BD03DBF0
:10557000FFF77EFF07B000BD02AAFFF76BFC10F03B
:1055800003014FF001000DD0012914D002291AD0D7
:105590000DF1080C9CE80F00FFF720FE07B081F02A
:1055A000004100BD0DF1080C00909CE80F00FFF7D2
:1055B000E9FE07B000BD0DF1080C9CE80F00FFF7F5
:1055C0000DFE07B000BD0DF1080C00909CE80F0027
:1055D000FFF7D8FEE2E70000FB21E93F0000F07F83
:1055E00010B500290AD00878002807D0054878446B
:1055F000FFF714F8002801D0002010BD02487844BD
:1056000010BD0000262B00001E2B000021F00042E0
:10561000A2F16052B2F5801F01F0004328BFD2F121
:105620007F6C0BD95FEA001C43EAC20242EB507068
:1056300018BF704728BF20F001007047B2F5801FE7
:10564000BCBF184670474FEA410C1CF5001F02D240
:10565000084600F050BF70B500F044FB0000008920
:10566000FFF7F6BF4FF00040A0F580007047000044
:1056700010B591EA030F48BF83F0004300F19A830D
:10568000841A71EB030C05D2121943EB0C03001BB7
:1056900061EB0C01DFF824E14FEA1154A4EB135C39
:1056A0001EEA430F18BF9EEA445F73D023EA0E033D
:1056B000DCF1200E21EA045143F4801332D322FAA4
:1056C0000CFE10EB0E0023FA0CFE41EB0E01CCF1A8
:1056D000200E03FA0EFE10EB0E0051F10001B1F5A1
:1056E000801FCCF1200E32D201EB045112FA0EF2DF
:1056F000BDE8104058BF7047401C38BF5FEA420207
:1057000018BF7047002814BF20F0010041F10001CC
:105710004FEA410313F5001F38BF7047A1F1C041A4
:1057200000F02EBB012A43EB0302ACF1200CDCF1AC
:105730001F0E32BF4FF0000E23FA0CF310EB0300E4
:1057400041EB0451B4EB115FD0D0A1EB045101F552
:10575000801149085FEA300001EB04510ED350F18B
:10576000000038BF12FA0EFE08D1BDE81040C9E7AC
:10577000401C38BF5FEA4202CAD1C3E7BDE810400F
:105780004FEA410313F5001F38BF7047A1F1C04134
:1057900000F0F6BA9EEA445F08D011EA5E0FBDE859
:1057A000104004BF01F0004100207047BDE81040E8
:1057B00070B500F097FA00BF64FBBE3E0000E0FF4A
:1057C00002494FF0000000F044BF00BF0000F87F26
:1057D0002DE9C04130B4DFF8A0C23CEA111418BF73
:1057E0003CEA131400F0EC8081EA03051CEA111472
:1057F00044EAD57418BF1CEA131500F0C780A4EB67
:1058000005044FF0004545EAC12145EAC32341EABA
:10581000505143EA525304F17F74994204F5003425
:105820004FEAC0204FEAC22208BF904200F09C809D
:105830004FEA13650FF24016765D4FEA134506FBFB
:1058400005F7C7F1807706FB07F74FEAD737A7FBC5
:1058500003687642C8F58038A7FB06CE38BFA8F1AA
:10586000010807FB08E64FF0000EA6FB028CE6FBE2
:1058700003CEDCF1000CCEF1004E38BFAEF1010ECC
:10588000A6FB0C584FF000074FF00005E6FB0E8713
:10589000A1FB08C6A0FB07CE16EB0E0645F10005DE
:1058A000E1FB076515F1E04E7EBFA4F580345FEAA9
:1058B00046066D4116F1800745F100054FEA1727AE
:1058C0004FEA066647EA0567A6F1DE46B6F1805F55
:1058D0004FEA15251FD9384624F0010C05EBC47199
:1058E000BCF1FE6F01EB0C1102D8F0BCBDE80081E9
:1058F00024425CBF01F5801E9EEAC47F02D4F0BC46
:10590000BDE80081244238D4F0BCA1F1C041BDE81B
:10591000004100F035BA4FEAD22242EA43524FEA40
:10592000D323A7FB02864FEAD02040EA415007FB71
:1059300003661EEA0E0F4FEAD12105FB026658BF2F
:10594000A6EB0056B6EB00564FEA520E4EEAC37E67
:1059500018EB0E0E56EB530EBDD518EB02085E4148
:105960007F1C55F10005B6E74FF480154FF0000796
:105970004FF000064FF00008ADE7F0BC4FF000001C
:1059800001F1C04101F00041BDE8008111EA0C1FA6
:105990000CEA131500D00CE013EA0C1F00F0258070
:1059A0004FF00000F0BC81EA030101F00041BDE8C6
:1059B0000081F0BCBDE8004181EA030100F0E0B9DC
:1059C000F0BCBDE8004170B500F08CF9097EFC3EEA
:1059D00000F007B881EA03014FF0000001F0004138
:1059E000704781EA030100F0CBB9F0BCBDE800418B
:1059F0004FF0000021497047FFFDFBF9F7F5F4F285
:105A0000F0EEEDEBE9E8E6E4E3E1E0DEDDDBDAD859
:105A1000D7D5D4D3D1D0CFCDCCCBCAC8C7C6C5C4B7
:105A2000C2C1C0BFBEBDBCBBBAB9B8B7B6B5B4B3CE
:105A3000B2B1B0AFAEADACABAAA9A8A8A7A6A5A4B9
:105A4000A3A3A2A1A09F9F9E9D9C9C9B9A9999987D
:105A50009797969595949393929191908F8F8E8E20
:105A60008D8C8C8B8B8A89898888878786858584AD
:105A700084838382828181800000FF070000F87F99
:105A80004FEA41034FEA5353A3F58063D3F11E035A
:105A9000C8BFD3F1210C0CDD4FF0004242EAC12215
:105AA00042EA505232FA03FC8CEAE17CACEBE17042
:105AB0007047102BC4BF0020704703F5787CBCF101
:105AC000FF3F04D06FF0004282EA2100704770B5BA
:105AD00000F008F94992248000207047F2E70000A6
